{
  "_format": "hh-sol-artifact-1",
  "contractName": "Reputation",
  "sourceName": "contracts/Reputation.sol",
  "abi": [
    {
      "inputs": [],
      "stateMutability": "nonpayable",
      "type": "constructor"
    },
    {
      "inputs": [],
      "name": "accessgiven",
      "outputs": [],
      "stateMutability": "nonpayable",
      "type": "function"
    },
    {
      "inputs": [],
      "name": "addnewtoken",
      "outputs": [],
      "stateMutability": "nonpayable",
      "type": "function"
    },
    {
      "inputs": [],
      "name": "beta",
      "outputs": [
        {
          "internalType": "uint8",
          "name": "",
          "type": "uint8"
        }
      ],
      "stateMutability": "view",
      "type": "function"
    },
    {
      "inputs": [
        {
          "internalType": "uint256",
          "name": "price",
          "type": "uint256"
        }
      ],
      "name": "calculateprice",
      "outputs": [
        {
          "internalType": "uint256",
          "name": "",
          "type": "uint256"
        }
      ],
      "stateMutability": "pure",
      "type": "function"
    },
    {
      "inputs": [],
      "name": "calculaterep",
      "outputs": [
        {
          "internalType": "uint256",
          "name": "",
          "type": "uint256"
        }
      ],
      "stateMutability": "view",
      "type": "function"
    },
    {
      "inputs": [
        {
          "internalType": "uint256",
          "name": "temp",
          "type": "uint256"
        },
        {
          "internalType": "uint256",
          "name": "tresult",
          "type": "uint256"
        }
      ],
      "name": "checkfreq",
      "outputs": [
        {
          "internalType": "uint256",
          "name": "",
          "type": "uint256"
        }
      ],
      "stateMutability": "pure",
      "type": "function"
    },
    {
      "inputs": [
        {
          "internalType": "address",
          "name": "tokenOwner",
          "type": "address"
        }
      ],
      "name": "checktokenbalance",
      "outputs": [
        {
          "internalType": "uint256",
          "name": "",
          "type": "uint256"
        }
      ],
      "stateMutability": "view",
      "type": "function"
    },
    {
      "inputs": [],
      "name": "contractaddress",
      "outputs": [
        {
          "internalType": "address",
          "name": "test",
          "type": "address"
        }
      ],
      "stateMutability": "view",
      "type": "function"
    },
    {
      "inputs": [
        {
          "internalType": "uint256",
          "name": "number",
          "type": "uint256"
        }
      ],
      "name": "converttobytes",
      "outputs": [
        {
          "internalType": "bytes16",
          "name": "",
          "type": "bytes16"
        }
      ],
      "stateMutability": "pure",
      "type": "function"
    },
    {
      "inputs": [
        {
          "internalType": "bytes16",
          "name": "number",
          "type": "bytes16"
        }
      ],
      "name": "converttoint",
      "outputs": [
        {
          "internalType": "int256",
          "name": "",
          "type": "int256"
        }
      ],
      "stateMutability": "pure",
      "type": "function"
    },
    {
      "inputs": [
        {
          "internalType": "uint256",
          "name": "num1",
          "type": "uint256"
        },
        {
          "internalType": "uint256",
          "name": "num2",
          "type": "uint256"
        }
      ],
      "name": "division",
      "outputs": [
        {
          "internalType": "bytes16",
          "name": "",
          "type": "bytes16"
        }
      ],
      "stateMutability": "pure",
      "type": "function"
    },
    {
      "inputs": [
        {
          "internalType": "address",
          "name": "test",
          "type": "address"
        }
      ],
      "name": "getClientRecord",
      "outputs": [
        {
          "components": [
            {
              "internalType": "uint256[]",
              "name": "ratingm",
              "type": "uint256[]"
            },
            {
              "internalType": "uint256[]",
              "name": "time",
              "type": "uint256[]"
            },
            {
              "internalType": "uint256",
              "name": "count",
              "type": "uint256"
            },
            {
              "internalType": "uint256[]",
              "name": "price",
              "type": "uint256[]"
            }
          ],
          "internalType": "struct Reputation.Customer",
          "name": "",
          "type": "tuple"
        }
      ],
      "stateMutability": "view",
      "type": "function"
    },
    {
      "inputs": [],
      "name": "getRatings",
      "outputs": [
        {
          "internalType": "uint256[]",
          "name": "",
          "type": "uint256[]"
        }
      ],
      "stateMutability": "view",
      "type": "function"
    },
    {
      "inputs": [],
      "name": "getallnegratings",
      "outputs": [
        {
          "internalType": "int256",
          "name": "",
          "type": "int256"
        }
      ],
      "stateMutability": "view",
      "type": "function"
    },
    {
      "inputs": [],
      "name": "getallposratings",
      "outputs": [
        {
          "internalType": "uint256",
          "name": "",
          "type": "uint256"
        }
      ],
      "stateMutability": "view",
      "type": "function"
    },
    {
      "inputs": [],
      "name": "getnegRatings",
      "outputs": [
        {
          "internalType": "int256[]",
          "name": "",
          "type": "int256[]"
        }
      ],
      "stateMutability": "view",
      "type": "function"
    },
    {
      "inputs": [],
      "name": "gettokencounts",
      "outputs": [
        {
          "internalType": "uint256",
          "name": "",
          "type": "uint256"
        }
      ],
      "stateMutability": "view",
      "type": "function"
    },
    {
      "inputs": [],
      "name": "mytoken",
      "outputs": [
        {
          "internalType": "contract Mytoken",
          "name": "",
          "type": "address"
        }
      ],
      "stateMutability": "view",
      "type": "function"
    },
    {
      "inputs": [
        {
          "internalType": "uint256",
          "name": "",
          "type": "uint256"
        }
      ],
      "name": "negratings",
      "outputs": [
        {
          "internalType": "int256",
          "name": "",
          "type": "int256"
        }
      ],
      "stateMutability": "view",
      "type": "function"
    },
    {
      "inputs": [
        {
          "internalType": "uint256",
          "name": "",
          "type": "uint256"
        }
      ],
      "name": "posratings",
      "outputs": [
        {
          "internalType": "uint256",
          "name": "",
          "type": "uint256"
        }
      ],
      "stateMutability": "view",
      "type": "function"
    },
    {
      "inputs": [
        {
          "internalType": "uint8",
          "name": "status",
          "type": "uint8"
        },
        {
          "internalType": "uint256",
          "name": "rating",
          "type": "uint256"
        },
        {
          "internalType": "uint256",
          "name": "price",
          "type": "uint256"
        }
      ],
      "name": "rate",
      "outputs": [],
      "stateMutability": "nonpayable",
      "type": "function"
    },
    {
      "inputs": [
        {
          "internalType": "address",
          "name": "",
          "type": "address"
        }
      ],
      "name": "raters",
      "outputs": [
        {
          "internalType": "uint256",
          "name": "count",
          "type": "uint256"
        }
      ],
      "stateMutability": "view",
      "type": "function"
    },
    {
      "inputs": [],
      "name": "seller",
      "outputs": [
        {
          "internalType": "address",
          "name": "",
          "type": "address"
        }
      ],
      "stateMutability": "view",
      "type": "function"
    },
    {
      "inputs": [
        {
          "internalType": "uint256",
          "name": "current",
          "type": "uint256"
        },
        {
          "internalType": "uint256",
          "name": "last",
          "type": "uint256"
        }
      ],
      "name": "timecalculate",
      "outputs": [
        {
          "internalType": "uint256",
          "name": "",
          "type": "uint256"
        }
      ],
      "stateMutability": "pure",
      "type": "function"
    },
    {
      "inputs": [
        {
          "internalType": "uint256",
          "name": "blocktime",
          "type": "uint256"
        }
      ],
      "name": "timedecay",
      "outputs": [
        {
          "internalType": "uint256",
          "name": "",
          "type": "uint256"
        }
      ],
      "stateMutability": "view",
      "type": "function"
    },
    {
      "inputs": [
        {
          "internalType": "uint256",
          "name": "",
          "type": "uint256"
        }
      ],
      "name": "times",
      "outputs": [
        {
          "internalType": "uint256",
          "name": "",
          "type": "uint256"
        }
      ],
      "stateMutability": "view",
      "type": "function"
    }
  ],
  "bytecode": "0x60806040526040516200001290620000df565b604051809103906000f0801580156200002f573d6000803e3d6000fd5b506000806101000a81548173ffffffffffffffffffffffffffffffffffffffff021916908373ffffffffffffffffffffffffffffffffffffffff1602179055506000600160146101000a81548160ff0219169083151502179055503480156200009757600080fd5b5033600160006101000a81548173ffffffffffffffffffffffffffffffffffffffff021916908373ffffffffffffffffffffffffffffffffffffffff160217905550620000ed565b610d7f8062004b5483390190565b614a5780620000fd6000396000f3fe608060405234801561001057600080fd5b506004361061018d5760003560e01c80639faa3c91116100de578063a76f801b11610097578063cdae32c311610071578063cdae32c3146104b0578063db7fbc86146104e0578063e0068052146104fe578063f29e1e4c1461052e5761018d565b8063a76f801b14610420578063adc3172b14610450578063ae887c24146104805761018d565b80639faa3c9114610336578063a302948614610354578063a44df34514610384578063a53b0a0a146103a2578063a58a3550146103d2578063a59911b0146103f05761018d565b806352a3fe6e1161014b5780637022b7ed116101255780637022b7ed1461029a5780638cbdd6bd146102ca5780638d7a37f4146102e85780639bc6e8ef146103185761018d565b806352a3fe6e1461022e5780635e861e221461024c5780635eab74fc1461027c5761018d565b80622146af1461019257806301c59800146101ae57806308551a53146101b857806320982bce146101d6578063276e20ba14610206578063447c713b14610210575b600080fd5b6101ac60048036038101906101a791906140ad565b61055e565b005b6101b6610aac565b005b6101c0610b3f565b6040516101cd9190614342565b60405180910390f35b6101f060048036038101906101eb9190614013565b610b65565b6040516101fd9190614458565b60405180910390f35b61020e610b89565b005b610218610c71565b6040516102259190614458565b60405180910390f35b610236610d35565b6040516102439190614458565b60405180910390f35b6102666004803603810190610261919061406d565b610dca565b6040516102739190614458565b60405180910390f35b610284610e03565b60405161029191906143e5565b60405180910390f35b6102b460048036038101906102af9190614013565b610e27565b6040516102c191906143ca565b60405180910390f35b6102d2610e39565b6040516102df91906143a8565b60405180910390f35b61030260048036038101906102fd919061406d565b610e91565b60405161030f9190614458565b60405180910390f35b610320610f0e565b60405161032d9190614386565b60405180910390f35b61033e610f66565b60405161034b9190614473565b60405180910390f35b61036e60048036038101906103699190613f8c565b610f6b565b60405161037b9190614458565b60405180910390f35b61038c61101e565b6040516103999190614458565b60405180910390f35b6103bc60048036038101906103b79190613f8c565b6110c4565b6040516103c99190614436565b60405180910390f35b6103da61122f565b6040516103e79190614400565b60405180910390f35b61040a60048036038101906104059190614013565b61128d565b6040516104179190614458565b60405180910390f35b61043a60048036038101906104359190614013565b611326565b6040516104479190614400565b60405180910390f35b61046a60048036038101906104659190613fe6565b61134a565b6040516104779190614400565b60405180910390f35b61049a60048036038101906104959190613f8c565b61135c565b6040516104a79190614458565b60405180910390f35b6104ca60048036038101906104c59190614013565b61137a565b6040516104d79190614458565b60405180910390f35b6104e86113e0565b6040516104f59190614342565b60405180910390f35b6105186004803603810190610513919061406d565b6113e8565b60405161052591906143ca565b60405180910390f35b61054860048036038101906105439190614013565b611417565b6040516105559190614458565b60405180910390f35b600160149054906101000a900460ff1661057757600080fd5b6000600560003373ffffffffffffffffffffffffffffffffffffffff1673ffffffffffffffffffffffffffffffffffffffff168152602001908152602001600020600101805490509050600080600080841461063b57600560003373ffffffffffffffffffffffffffffffffffffffff1673ffffffffffffffffffffffffffffffffffffffff16815260200190815260200160002060010160018561061c919061479d565b8154811061062d5761062c61497a565b5b906000526020600020015492505b600560003373ffffffffffffffffffffffffffffffffffffffff1673ffffffffffffffffffffffffffffffffffffffff168152602001908152602001600020600001869080600181540180825580915050600190039060005260206000200160009091909190915055600560003373ffffffffffffffffffffffffffffffffffffffff1673ffffffffffffffffffffffffffffffffffffffff1681526020019081526020016000206001014290806001815401808255809150506001900390600052602060002001600090919091909150556001600560003373ffffffffffffffffffffffffffffffffffffffff1673ffffffffffffffffffffffffffffffffffffffff168152602001908152602001600020600201600082825461076091906145a5565b92505081905550600560003373ffffffffffffffffffffffffffffffffffffffff1673ffffffffffffffffffffffffffffffffffffffff16815260200190815260200160002060030185908060018154018082558091505060019003906000526020600020016000909190919091505560044290806001815401808255809150506001900390600052602060002001600090919091909150556000600560003373ffffffffffffffffffffffffffffffffffffffff1673ffffffffffffffffffffffffffffffffffffffff1681526020019081526020016000206002015490506000600560003373ffffffffffffffffffffffffffffffffffffffff1673ffffffffffffffffffffffffffffffffffffffff1681526020019081526020016000206001018054905090506000861461090c57600560003373ffffffffffffffffffffffffffffffffffffffff1673ffffffffffffffffffffffffffffffffffffffff1681526020019081526020016000206001016001826108e1919061479d565b815481106108f2576108f161497a565b5b906000526020600020015493506109098486610dca565b92505b600061092460018461091e919061479d565b85610e91565b905060006109318961137a565b90506000808b14156109ea5781836109499190614743565b8b61095491906145a5565b905060018c60ff1614156109905760028190806001815401808255809150506001900390600052602060002001600090919091909150556109e5565b6003817fffffffffffffffffffffffffffffffffffffffffffffffffffffffffffffffff6109be919061462c565b90806001815401808255809150506001900390600052602060002001600090919091909150555b610a93565b81838c6109f79190614743565b610a019190614743565b905060018c60ff161415610a3d576002819080600181540180825580915050600190039060005260206000200160009091909190915055610a92565b6003817fffffffffffffffffffffffffffffffffffffffffffffffffffffffffffffffff610a6b919061462c565b90806001815401808255809150506001900390600052602060002001600090919091909150555b5b610a9d338b61143b565b50505050505050505050505050565b600160009054906101000a900473ffffffffffffffffffffffffffffffffffffffff1673ffffffffffffffffffffffffffffffffffffffff163373ffffffffffffffffffffffffffffffffffffffff161415610b215760018060146101000a81548160ff021916908315150217905550610b3d565b6000600160146101000a81548160ff0219169083151502179055505b565b600160009054906101000a900473ffffffffffffffffffffffffffffffffffffffff1681565b60048181548110610b7557600080fd5b906000526020600020016000915090505481565b600160009054906101000a900473ffffffffffffffffffffffffffffffffffffffff1673ffffffffffffffffffffffffffffffffffffffff163373ffffffffffffffffffffffffffffffffffffffff1614610be357600080fd5b60008054906101000a900473ffffffffffffffffffffffffffffffffffffffff1673ffffffffffffffffffffffffffffffffffffffff1663a0712d6860146040518263ffffffff1660e01b8152600401610c3d919061441b565b600060405180830381600087803b158015610c5757600080fd5b505af1158015610c6b573d6000803e3d6000fd5b50505050565b600080610c7c610d35565b90506000610c8861122f565b7fffffffffffffffffffffffffffffffffffffffffffffffffffffffffffffffff610cb3919061462c565b905060008183610cc391906145a5565b905082821415610cd95760009350505050610d32565b82821115610d145760008383610cef919061479d565b905081600a82610cff9190614743565b610d0991906145fb565b945050505050610d32565b80600a84610d229190614743565b610d2c91906145fb565b93505050505b90565b6000806000905060005b600280549050811015610dc2576000610d7560048381548110610d6557610d6461497a565b5b906000526020600020015461128d565b90508060028381548110610d8c57610d8b61497a565b5b9060005260206000200154610da19190614743565b83610dac91906145a5565b9250508080610dba906148a4565b915050610d3f565b508091505090565b60006018603c808486610ddd919061479d565b610de791906145fb565b610df191906145fb565b610dfb91906145fb565b905092915050565b60008054906101000a900473ffffffffffffffffffffffffffffffffffffffff1681565b6000610e328261150f565b9050919050565b60606002805480602002602001604051908101604052809291908181526020018280548015610e8757602002820191906000526020600020905b815481526020019060010190808311610e73575b5050505050905090565b600060038210610ea45760059050610f08565b6000610eb0600561150f565b90506000610ebd8561150f565b90506000610ecb600761150f565b90506000610ed9838361158d565b90506000610ee682611a56565b90506000610ef4868361158d565b9050610eff81611a84565b96505050505050505b92915050565b60606003805480602002602001604051908101604052809291908181526020018280548015610f5c57602002820191906000526020600020905b815481526020019060010190808311610f48575b5050505050905090565b600781565b60008060009054906101000a900473ffffffffffffffffffffffffffffffffffffffff1673ffffffffffffffffffffffffffffffffffffffff166370a08231836040518263ffffffff1660e01b8152600401610fc79190614342565b60206040518083038186803b158015610fdf57600080fd5b505afa158015610ff3573d6000803e3d6000fd5b505050506040513d601f19601f820116820180604052508101906110179190614040565b9050919050565b60008060009054906101000a900473ffffffffffffffffffffffffffffffffffffffff1673ffffffffffffffffffffffffffffffffffffffff166318160ddd6040518163ffffffff1660e01b815260040160206040518083038186803b15801561108757600080fd5b505afa15801561109b573d6000803e3d6000fd5b505050506040513d601f19601f820116820180604052508101906110bf9190614040565b905090565b6110cc613ee6565b600560008373ffffffffffffffffffffffffffffffffffffffff1673ffffffffffffffffffffffffffffffffffffffff1681526020019081526020016000206040518060800160405290816000820180548060200260200160405190810160405280929190818152602001828054801561116557602002820191906000526020600020905b815481526020019060010190808311611151575b50505050508152602001600182018054806020026020016040519081016040528092919081815260200182805480156111bd57602002820191906000526020600020905b8154815260200190600101908083116111a9575b50505050508152602001600282015481526020016003820180548060200260200160405190810160405280929190818152602001828054801561121f57602002820191906000526020600020905b81548152602001906001019080831161120b575b5050505050815250509050919050565b6000806000905060005b600380549050811015611285576003818154811061125a5761125961497a565b5b9060005260206000200154826112709190614511565b9150808061127d906148a4565b915050611239565b508091505090565b60008042905060006018603c8086856112a6919061479d565b6112b091906145fb565b6112ba91906145fb565b6112c491906145fb565b905060088110156112da57600192505050611321565b6007811180156112ea5750601f81105b156112fa57600892505050611321565b601e8111801561130a5750605b81105b1561131a57600692505050611321565b6005925050505b919050565b6003818154811061133657600080fd5b906000526020600020016000915090505481565b600061135582611b82565b9050919050565b60056020528060005260406000206000915090508060020154905081565b60006014821161138d57600190506113db565b60006113a460018461139f91906145a5565b61150f565b905060006113b182611ce2565b905060006113be82611a84565b9050600581106113d457600593505050506113db565b8093505050505b919050565b600030905090565b6000806113f484610e27565b9050600061140184610e27565b905061140d828261158d565b9250505092915050565b6002818154811061142757600080fd5b906000526020600020016000915090505481565b600080600160648461144d91906145fb565b61145791906145a5565b905060008054906101000a900473ffffffffffffffffffffffffffffffffffffffff1673ffffffffffffffffffffffffffffffffffffffff1663a9059cbb85836040518363ffffffff1660e01b81526004016114b492919061435d565b602060405180830381600087803b1580156114ce57600080fd5b505af11580156114e2573d6000803e3d6000fd5b505050506040513d601f19601f820116820180604052508101906115069190613fb9565b91505092915050565b60008082141561152557600060801b9050611588565b6000829050600061153582611d10565b9050607081101561154e578060700382901b9150611562565b6070811115611561576070810382901c91505b5b607081613fff01901b6dffffffffffffffffffffffffffff83161791508160801b925050505b919050565b600080617fff60708560801c6fffffffffffffffffffffffffffffffff16901c166fffffffffffffffffffffffffffffffff1690506000617fff60708560801c6fffffffffffffffffffffffffffffffff16901c166fffffffffffffffffffffffffffffffff169050617fff82141561164857617fff811415611627576f7fff800000000000000000000000000060801b92505050611a50565b6f8000000000000000000000000000000060801b8416851892505050611a50565b617fff8114156116c757600060801b6dffffffffffffffffffffffffffff60801b85166fffffffffffffffffffffffffffffffff1916146116a0576f7fff800000000000000000000000000060801b92505050611a50565b6f8000000000000000000000000000000060801b84861816600060801b1792505050611a50565b600060801b6f7fffffffffffffffffffffffffffffff60801b85166fffffffffffffffffffffffffffffffff1916141561178257600060801b6f7fffffffffffffffffffffffffffffff60801b86166fffffffffffffffffffffffffffffffff1916141561174c576f7fff800000000000000000000000000060801b92505050611a50565b6f8000000000000000000000000000000060801b848618166f7fff000000000000000000000000000060801b1792505050611a50565b60006dffffffffffffffffffffffffffff8560801c166fffffffffffffffffffffffffffffffff16905060008214156117be57600191506117d3565b6e010000000000000000000000000000811790505b60006dffffffffffffffffffffffffffff8760801c166fffffffffffffffffffffffffffffffff1690506000841415611837576000811461183257600061181982611d10565b60e20390508082901b9150600194506072810384019350505b611850565b60726e0100000000000000000000000000008217901b90505b8181816118605761185f61494b565b5b04905060008114156118cb57600060801b6f8000000000000000000000000000000060801b878918166fffffffffffffffffffffffffffffffff1916116118ab57600060801b6118c0565b6f8000000000000000000000000000000060801b5b945050505050611a50565b6d10000000000000000000000000008110156118ea576118e96148ed565b5b60006e08000000000000000000000000000082101561194b576e040000000000000000000000000000821015611940576e02000000000000000000000000000082101561193857607061193b565b60715b611943565b60725b60ff16611955565b61195482611d10565b5b90506140718401818601111561197357617fff945060009150611a10565b83613ffc82870101101561198e576000945060009150611a0f565b83613f8c8287010110156119dc5783613ffc860111156119b95783613ffc86010382901b91506119d3565b83613ffc860110156119d257613ffc8585030382901c91505b5b60009450611a0e565b60708111156119ef576070810382901c91505b6dffffffffffffffffffffffffffff8216915083613f8d828701010394505b5b5b81607086901b6f8000000000000000000000000000000060801b898b181660801c6fffffffffffffffffffffffffffffffff16171760801b955050505050505b92915050565b6000611a7d611a78836f3fff71547652b82fe1777d0ffda0d23a60801b611df1565b612286565b9050919050565b600080617fff60708460801c6fffffffffffffffffffffffffffffffff16901c166fffffffffffffffffffffffffffffffff169050613fff811015611acd576000915050611b7d565b6f800000000000000000000000000000008360801c6fffffffffffffffffffffffffffffffff1610611afe57600080fd5b6140fe811115611b0d57600080fd5b60006e0100000000000000000000000000006dffffffffffffffffffffffffffff8560801c6fffffffffffffffffffffffffffffffff161617905061406f821015611b61578161406f0381901c9050611b77565b61406f821115611b765761406f820381901b90505b5b80925050505b919050565b600080617fff60708460801c6fffffffffffffffffffffffffffffffff16901c166fffffffffffffffffffffffffffffffff1690506140fe811115611bc657600080fd5b613fff811015611bda576000915050611cdd565b60006e0100000000000000000000000000006dffffffffffffffffffffffffffff8560801c6fffffffffffffffffffffffffffffffff161617905061406f821015611c2e578161406f0381901c9050611c44565b61406f821115611c435761406f820381901b90505b5b6f800000000000000000000000000000008460801c6fffffffffffffffffffffffffffffffff1610611caa577f8000000000000000000000000000000000000000000000000000000000000000811115611c9d57600080fd5b8060000392505050611cdd565b7f7fffffffffffffffffffffffffffffffffffffffffffffffffffffffffffffff811115611cd757600080fd5b80925050505b919050565b6000611d09611cf083613c2e565b6f3ffe62e42fefa39ef35793c7673007e560801b611df1565b9050919050565b6000808211611d1e57600080fd5b60007001000000000000000000000000000000008310611d4657608083901c92506080810190505b680100000000000000008310611d6457604083901c92506040810190505b6401000000008310611d7e57602083901c92506020810190505b620100008310611d9657601083901c92506010810190505b6101008310611dad57600883901c92506008810190505b60108310611dc357600483901c92506004810190505b60048310611dd957600283901c92506002810190505b60028310611de8576001810190505b80915050919050565b600080617fff60708560801c6fffffffffffffffffffffffffffffffff16901c166fffffffffffffffffffffffffffffffff1690506000617fff60708560801c6fffffffffffffffffffffffffffffffff16901c166fffffffffffffffffffffffffffffffff169050617fff821415611f8857617fff811415611f1657836fffffffffffffffffffffffffffffffff1916856fffffffffffffffffffffffffffffffff19161415611ebd576f8000000000000000000000000000000060801b8416851892505050612280565b6f8000000000000000000000000000000060801b8486186fffffffffffffffffffffffffffffffff19161415611ef95783851792505050612280565b6f7fff800000000000000000000000000060801b92505050612280565b600060801b6f7fffffffffffffffffffffffffffffff60801b85166fffffffffffffffffffffffffffffffff19161415611f67576f7fff800000000000000000000000000060801b92505050612280565b6f8000000000000000000000000000000060801b8416851892505050612280565b617fff81141561200457600060801b6f7fffffffffffffffffffffffffffffff60801b86166fffffffffffffffffffffffffffffffff19161415611fe3576f7fff800000000000000000000000000060801b92505050612280565b6f8000000000000000000000000000000060801b8516841892505050612280565b60006dffffffffffffffffffffffffffff8660801c166fffffffffffffffffffffffffffffffff16905060008314156120405760019250612055565b6e010000000000000000000000000000811790505b60006dffffffffffffffffffffffffffff8660801c166fffffffffffffffffffffffffffffffff169050600083141561209157600192506120a6565b6e010000000000000000000000000000811790505b8082029150600082141561211357600060801b6f8000000000000000000000000000000060801b878918166fffffffffffffffffffffffffffffffff1916116120f357600060801b612108565b6f8000000000000000000000000000000060801b5b945050505050612280565b828401935060007c020000000000000000000000000000000000000000000000000000000083101561217a577c01000000000000000000000000000000000000000000000000000000008310156121725761216d83611d10565b612175565b60e05b61217d565b60e15b90506140708186011015612198576000945060009250612240565b6140e081860110156121dc576140708510156121bd57846140700383901c92506121d3565b6140708511156121d257614070850383901b92505b5b6000945061223f565b61c0dd81860111156121f657617fff94506000925061223e565b607081111561220d576070810383901c9250612221565b6070811015612220578060700383901b92505b5b6dffffffffffffffffffffffffffff831692506140df8186010394505b5b5b82607086901b6f8000000000000000000000000000000060801b898b181660801c6fffffffffffffffffffffffffffffffff16171760801b955050505050505b92915050565b6000806f800000000000000000000000000000008360801c6fffffffffffffffffffffffffffffffff161190506000617fff60708560801c6fffffffffffffffffffffffffffffffff16901c166fffffffffffffffffffffffffffffffff16905060006dffffffffffffffffffffffffffff8560801c166fffffffffffffffffffffffffffffffff169050617fff82148015612323575060008114155b15612346576f7fff800000000000000000000000000060801b9350505050613c29565b61400d82111561237e578261236e576f7fff000000000000000000000000000060801b612374565b600060801b5b9350505050613c29565b613f7f8210156123a6576f3fff000000000000000000000000000060801b9350505050613c29565b60008214156123b857600191506123cd565b6e010000000000000000000000000000811790505b613fef8211156123e657613fef820381901b90506123fc565b613fef8210156123fb5781613fef0381901c90505b5b82801561241a575071406e0000000000000000000000000000000081115b1561242e57600060801b9350505050613c29565b8215801561244d5750713fffffffffffffffffffffffffffffffffff81115b15612470576f7fff000000000000000000000000000060801b9350505050613c29565b6000608082901c90506fffffffffffffffffffffffffffffffff8216915083801561249c575060008214155b156124ac57811991506001810190505b60006f80000000000000000000000000000000905060006f80000000000000000000000000000000841611156124f757608070016a09e667f3bcc908b2fb1366ea957d3e8202901c90505b60006f400000000000000000000000000000008416111561252d5760807001306fe0a31b7152de8d5a46305c85edec8202901c90505b60006f20000000000000000000000000000000841611156125635760807001172b83c7d517adcdf7c8c50eb14a791f8202901c90505b60006f100000000000000000000000000000008416111561259957608070010b5586cf9890f6298b92b71842a983638202901c90505b60006f08000000000000000000000000000000841611156125cf5760807001059b0d31585743ae7c548eb68ca417fd8202901c90505b60006f0400000000000000000000000000000084161115612605576080700102c9a3e778060ee6f7caca4f7a29bde88202901c90505b60006f020000000000000000000000000000008416111561263b57608070010163da9fb33356d84a66ae336dcdfa3f8202901c90505b60006f0100000000000000000000000000000084161115612671576080700100b1afa5abcbed6129ab13ec11dc95438202901c90505b60006e800000000000000000000000000000841611156126a657608070010058c86da1c09ea1ff19d294cf2f679b8202901c90505b60006e400000000000000000000000000000841611156126db5760807001002c605e2e8cec506d21bfc89a23a00f8202901c90505b60006e20000000000000000000000000000084161115612710576080700100162f3904051fa128bca9c55c31e5df8202901c90505b60006e100000000000000000000000000000841611156127455760807001000b175effdc76ba38e31671ca9397258202901c90505b60006e0800000000000000000000000000008416111561277a576080700100058ba01fb9f96d6cacd4b180917c3d8202901c90505b60006e040000000000000000000000000000841611156127af57608070010002c5cc37da9491d0985c348c68e7b38202901c90505b60006e020000000000000000000000000000841611156127e45760807001000162e525ee054754457d59952920268202901c90505b60006e0100000000000000000000000000008416111561281957608070010000b17255775c040618bf4a4ade83fc8202901c90505b60006d80000000000000000000000000008416111561284d5760807001000058b91b5bc9ae2eed81e9b7d4cfab8202901c90505b60006d400000000000000000000000000084161115612881576080700100002c5c89d5ec6ca4d7c8acc017b7c98202901c90505b60006d2000000000000000000000000000841611156128b557608070010000162e43f4f831060e02d839a9d16d8202901c90505b60006d1000000000000000000000000000841611156128e9576080700100000b1721bcfc99d9f890ea069117638202901c90505b60006d08000000000000000000000000008416111561291d57608070010000058b90cf1e6d97f9ca14dbcc16288202901c90505b60006d0400000000000000000000000000841611156129515760807001000002c5c863b73f016468f6bac5ca2b8202901c90505b60006d020000000000000000000000000084161115612985576080700100000162e430e5a18f6119e3c02282a58202901c90505b60006d0100000000000000000000000000841611156129b95760807001000000b1721835514b86e6d96efd1bfe8202901c90505b60006c80000000000000000000000000841611156129ec576080700100000058b90c0b48c6be5df846c5b2ef8202901c90505b60006c4000000000000000000000000084161115612a1f57608070010000002c5c8601cc6b9e94213c72737a8202901c90505b60006c2000000000000000000000000084161115612a525760807001000000162e42fff037df38aa2b219f068202901c90505b60006c1000000000000000000000000084161115612a8557608070010000000b17217fba9c739aa5819f44f98202901c90505b60006c0800000000000000000000000084161115612ab85760807001000000058b90bfcdee5acd3c1cedc8238202901c90505b60006c0400000000000000000000000084161115612aeb576080700100000002c5c85fe31f35a6a30da1be508202901c90505b60006c0200000000000000000000000084161115612b1e57608070010000000162e42ff0999ce3541b9fffcf8202901c90505b60006c0100000000000000000000000084161115612b51576080700100000000b17217f80f4ef5aadda455548202901c90505b60006b80000000000000000000000084161115612b8357608070010000000058b90bfbf8479bd5a81b51ad8202901c90505b60006b40000000000000000000000084161115612bb55760807001000000002c5c85fdf84bd62ae30a74cc8202901c90505b60006b20000000000000000000000084161115612be7576080700100000000162e42fefb2fed257559bdaa8202901c90505b60006b10000000000000000000000084161115612c195760807001000000000b17217f7d5a7716bba4a9ae8202901c90505b60006b08000000000000000000000084161115612c4b576080700100000000058b90bfbe9ddbac5e109cce8202901c90505b60006b04000000000000000000000084161115612c7d57608070010000000002c5c85fdf4b15de6f17eb0d8202901c90505b60006b02000000000000000000000084161115612caf5760807001000000000162e42fefa494f1478fde058202901c90505b60006b01000000000000000000000084161115612ce157608070010000000000b17217f7d20cf927c8e94c8202901c90505b60006a800000000000000000000084161115612d125760807001000000000058b90bfbe8f71cb4e4b33d8202901c90505b60006a400000000000000000000084161115612d43576080700100000000002c5c85fdf477b662b269458202901c90505b60006a200000000000000000000084161115612d7457608070010000000000162e42fefa3ae53369388c8202901c90505b60006a100000000000000000000084161115612da5576080700100000000000b17217f7d1d351a389d408202901c90505b60006a080000000000000000000084161115612dd657608070010000000000058b90bfbe8e8b2d3d4ede8202901c90505b60006a040000000000000000000084161115612e075760807001000000000002c5c85fdf4741bea6e77e8202901c90505b60006a020000000000000000000084161115612e38576080700100000000000162e42fefa39fe95583c28202901c90505b60006a010000000000000000000084161115612e695760807001000000000000b17217f7d1cfb72b45e18202901c90505b6000698000000000000000000084161115612e99576080700100000000000058b90bfbe8e7cc35c3f08202901c90505b6000694000000000000000000084161115612ec957608070010000000000002c5c85fdf473e242ea388202901c90505b6000692000000000000000000084161115612ef95760807001000000000000162e42fefa39f02b772c8202901c90505b6000691000000000000000000084161115612f2957608070010000000000000b17217f7d1cf7d83c1a8202901c90505b6000690800000000000000000084161115612f595760807001000000000000058b90bfbe8e7bdcbe2e8202901c90505b6000690400000000000000000084161115612f89576080700100000000000002c5c85fdf473dea871f8202901c90505b6000690200000000000000000084161115612fb957608070010000000000000162e42fefa39ef44d918202901c90505b6000690100000000000000000084161115612fe9576080700100000000000000b17217f7d1cf79e9498202901c90505b6000688000000000000000008416111561301857608070010000000000000058b90bfbe8e7bce5448202901c90505b600068400000000000000000841611156130475760807001000000000000002c5c85fdf473de6eca8202901c90505b60006820000000000000000084161115613076576080700100000000000000162e42fefa39ef366f8202901c90505b600068100000000000000000841611156130a55760807001000000000000000b17217f7d1cf79afa8202901c90505b600068080000000000000000841611156130d4576080700100000000000000058b90bfbe8e7bcd6d8202901c90505b6000680400000000000000008416111561310357608070010000000000000002c5c85fdf473de6b28202901c90505b600068020000000000000000841611156131325760807001000000000000000162e42fefa39ef3588202901c90505b6000680100000000000000008416111561316157608070010000000000000000b17217f7d1cf79ab8202901c90505b60006780000000000000008416111561318f5760807001000000000000000058b90bfbe8e7bcd58202901c90505b6000674000000000000000841611156131bd576080700100000000000000002c5c85fdf473de6a8202901c90505b6000672000000000000000841611156131eb57608070010000000000000000162e42fefa39ef348202901c90505b600067100000000000000084161115613219576080700100000000000000000b17217f7d1cf7998202901c90505b60006708000000000000008416111561324757608070010000000000000000058b90bfbe8e7bcc8202901c90505b6000670400000000000000841611156132755760807001000000000000000002c5c85fdf473de58202901c90505b6000670200000000000000841611156132a3576080700100000000000000000162e42fefa39ef28202901c90505b6000670100000000000000841611156132d15760807001000000000000000000b17217f7d1cf788202901c90505b60006680000000000000841611156132fe576080700100000000000000000058b90bfbe8e7bb8202901c90505b600066400000000000008416111561332b57608070010000000000000000002c5c85fdf473dd8202901c90505b60006620000000000000841611156133585760807001000000000000000000162e42fefa39ee8202901c90505b600066100000000000008416111561338557608070010000000000000000000b17217f7d1cf68202901c90505b60006608000000000000841611156133b25760807001000000000000000000058b90bfbe8e7a8202901c90505b60006604000000000000841611156133df576080700100000000000000000002c5c85fdf473c8202901c90505b600066020000000000008416111561340c57608070010000000000000000000162e42fefa39d8202901c90505b6000660100000000000084161115613439576080700100000000000000000000b17217f7d1ce8202901c90505b6000658000000000008416111561346557608070010000000000000000000058b90bfbe8e68202901c90505b600065400000000000841611156134915760807001000000000000000000002c5c85fdf4728202901c90505b600065200000000000841611156134bd576080700100000000000000000000162e42fefa388202901c90505b600065100000000000841611156134e95760807001000000000000000000000b17217f7d1b8202901c90505b60006508000000000084161115613515576080700100000000000000000000058b90bfbe8d8202901c90505b6000650400000000008416111561354157608070010000000000000000000002c5c85fdf468202901c90505b6000650200000000008416111561356d5760807001000000000000000000000162e42fefa28202901c90505b6000650100000000008416111561359957608070010000000000000000000000b17217f7d08202901c90505b6000648000000000841611156135c45760807001000000000000000000000058b90bfbe78202901c90505b6000644000000000841611156135ef576080700100000000000000000000002c5c85fdf38202901c90505b60006420000000008416111561361a57608070010000000000000000000000162e42fef98202901c90505b600064100000000084161115613645576080700100000000000000000000000b17217f7c8202901c90505b60006408000000008416111561367057608070010000000000000000000000058b90bfbd8202901c90505b60006404000000008416111561369b5760807001000000000000000000000002c5c85fde8202901c90505b6000640200000000841611156136c6576080700100000000000000000000000162e42fee8202901c90505b6000640100000000841611156136f15760807001000000000000000000000000b17217f68202901c90505b600063800000008416111561371b576080700100000000000000000000000058b90bfa8202901c90505b600063400000008416111561374557608070010000000000000000000000002c5c85fc8202901c90505b600063200000008416111561376f5760807001000000000000000000000000162e42fd8202901c90505b600063100000008416111561379957608070010000000000000000000000000b17217e8202901c90505b60006308000000841611156137c35760807001000000000000000000000000058b90be8202901c90505b60006304000000841611156137ed576080700100000000000000000000000002c5c85e8202901c90505b600063020000008416111561381757608070010000000000000000000000000162e42e8202901c90505b6000630100000084161115613841576080700100000000000000000000000000b172168202901c90505b6000628000008416111561386a57608070010000000000000000000000000058b90a8202901c90505b600062400000841611156138935760807001000000000000000000000000002c5c848202901c90505b600062200000841611156138bc576080700100000000000000000000000000162e418202901c90505b600062100000841611156138e55760807001000000000000000000000000000b17208202901c90505b6000620800008416111561390e576080700100000000000000000000000000058b8f8202901c90505b6000620400008416111561393757608070010000000000000000000000000002c5c78202901c90505b600062020000841611156139605760807001000000000000000000000000000162e38202901c90505b6000620100008416111561398957608070010000000000000000000000000000b1718202901c90505b6000618000841611156139b15760807001000000000000000000000000000058b88202901c90505b6000614000841611156139d9576080700100000000000000000000000000002c5b8202901c90505b600061200084161115613a0157608070010000000000000000000000000000162d8202901c90505b600061100084161115613a29576080700100000000000000000000000000000b168202901c90505b600061080084161115613a5157608070010000000000000000000000000000058a8202901c90505b600061040084161115613a795760807001000000000000000000000000000002c48202901c90505b600061020084161115613aa15760807001000000000000000000000000000001618202901c90505b600061010084161115613ac95760807001000000000000000000000000000000b08202901c90505b6000608084161115613af05760807001000000000000000000000000000000578202901c90505b6000604084161115613b1757608070010000000000000000000000000000002b8202901c90505b6000602084161115613b3e5760807001000000000000000000000000000000158202901c90505b6000601084161115613b6557608070010000000000000000000000000000000a8202901c90505b6000600884161115613b8c5760807001000000000000000000000000000000048202901c90505b6000600484161115613bb35760807001000000000000000000000000000000018202901c90505b84613bdb576dffffffffffffffffffffffffffff600f82901c169050613fff82019150613c17565b613ffe8211613c07576dffffffffffffffffffffffffffff600f82901c16905081613fff039150613c16565b613fef820381901c9050600091505b5b80607083901b1760801b955050505050505b919050565b60006f800000000000000000000000000000008260801c6fffffffffffffffffffffffffffffffff161115613c78576f7fff800000000000000000000000000060801b9050613ee1565b6f3fff000000000000000000000000000060801b826fffffffffffffffffffffffffffffffff19161415613cb257600060801b9050613ee1565b6000617fff60708460801c6fffffffffffffffffffffffffffffffff16901c166fffffffffffffffffffffffffffffffff169050617fff811415613cf95782915050613ee1565b60006dffffffffffffffffffffffffffff8460801c166fffffffffffffffffffffffffffffffff1690506000821415613d355760019150613d4a565b6e010000000000000000000000000000811790505b6000811415613d70576fffff000000000000000000000000000060801b92505050613ee1565b60008061406f90506000613fff8510613d9a5760009250613fff85039050600f84901b9350613de7565b600192506e0100000000000000000000000000008410613dc75784613ffe039050600f84901b9350613de6565b6000613dd285611d10565b90508061406d03915080607f0385901b9450505b5b6f80000000000000000000000000000000841415613e2d578215613e0c576001810190505b6000613e1782611d10565b60700390508082901b9150808303925050613e8e565b600083613e3b576000613e3e565b60015b60ff1690505b6e010000000000000000000000000000821015613e8c57600182901b91506001830392508485029450600060ff86901c90508181188301925080607f0186901c955050613e44565b505b6dffffffffffffffffffffffffffff8116607083901b84613eb0576000613ec2565b6f800000000000000000000000000000005b6fffffffffffffffffffffffffffffffff16171760801b955050505050505b919050565b6040518060800160405280606081526020016060815260200160008152602001606081525090565b600081359050613f1d816149ae565b92915050565b600081519050613f32816149c5565b92915050565b600081359050613f47816149dc565b92915050565b600081359050613f5c816149f3565b92915050565b600081519050613f71816149f3565b92915050565b600081359050613f8681614a0a565b92915050565b600060208284031215613fa257613fa16149a9565b5b6000613fb084828501613f0e565b91505092915050565b600060208284031215613fcf57613fce6149a9565b5b6000613fdd84828501613f23565b91505092915050565b600060208284031215613ffc57613ffb6149a9565b5b600061400a84828501613f38565b91505092915050565b600060208284031215614029576140286149a9565b5b600061403784828501613f4d565b91505092915050565b600060208284031215614056576140556149a9565b5b600061406484828501613f62565b91505092915050565b60008060408385031215614084576140836149a9565b5b600061409285828601613f4d565b92505060206140a385828601613f4d565b9150509250929050565b6000806000606084860312156140c6576140c56149a9565b5b60006140d486828701613f77565b93505060206140e586828701613f4d565b92505060406140f686828701613f4d565b9150509250925092565b600061410c8383614277565b60208301905092915050565b60006141248383614315565b60208301905092915050565b614139816147d1565b82525050565b600061414a826144ae565b61415481856144de565b935061415f8361448e565b8060005b838110156141905781516141778882614100565b9750614182836144c4565b925050600181019050614163565b5085935050505092915050565b60006141a8826144b9565b6141b281856144ef565b93506141bd8361449e565b8060005b838110156141ee5781516141d58882614118565b97506141e0836144d1565b9250506001810190506141c1565b5085935050505092915050565b6000614206826144b9565b6142108185614500565b935061421b8361449e565b8060005b8381101561424c5781516142338882614118565b975061423e836144d1565b92505060018101905061421f565b5085935050505092915050565b614262816147ef565b82525050565b6142718161485c565b82525050565b6142808161481b565b82525050565b61428f8161481b565b82525050565b61429e8161486e565b82525050565b600060808301600083015184820360008601526142c1828261419d565b915050602083015184820360208601526142db828261419d565b91505060408301516142f06040860182614315565b5060608301518482036060860152614308828261419d565b9150508091505092915050565b61431e81614845565b82525050565b61432d81614845565b82525050565b61433c8161484f565b82525050565b60006020820190506143576000830184614130565b92915050565b60006040820190506143726000830185614130565b61437f6020830184614324565b9392505050565b600060208201905081810360008301526143a0818461413f565b905092915050565b600060208201905081810360008301526143c281846141fb565b905092915050565b60006020820190506143df6000830184614259565b92915050565b60006020820190506143fa6000830184614268565b92915050565b60006020820190506144156000830184614286565b92915050565b60006020820190506144306000830184614295565b92915050565b6000602082019050818103600083015261445081846142a4565b905092915050565b600060208201905061446d6000830184614324565b92915050565b60006020820190506144886000830184614333565b92915050565b6000819050602082019050919050565b6000819050602082019050919050565b600081519050919050565b600081519050919050565b6000602082019050919050565b6000602082019050919050565b600082825260208201905092915050565b600082825260208201905092915050565b600082825260208201905092915050565b600061451c8261481b565b91506145278361481b565b9250817f7fffffffffffffffffffffffffffffffffffffffffffffffffffffffffffffff038313600083121516156145625761456161491c565b5b817f800000000000000000000000000000000000000000000000000000000000000003831260008312161561459a5761459961491c565b5b828201905092915050565b60006145b082614845565b91506145bb83614845565b9250827fffffffffffffffffffffffffffffffffffffffffffffffffffffffffffffffff038211156145f0576145ef61491c565b5b828201905092915050565b600061460682614845565b915061461183614845565b9250826146215761462061494b565b5b828204905092915050565b60006146378261481b565b91506146428361481b565b9250827f7fffffffffffffffffffffffffffffffffffffffffffffffffffffffffffffff04821160008413600084131616156146815761468061491c565b5b817f800000000000000000000000000000000000000000000000000000000000000005831260008412600084131616156146be576146bd61491c565b5b827f800000000000000000000000000000000000000000000000000000000000000005821260008413600084121616156146fb576146fa61491c565b5b827f7fffffffffffffffffffffffffffffffffffffffffffffffffffffffffffffff05821260008412600084121616156147385761473761491c565b5b828202905092915050565b600061474e82614845565b915061475983614845565b9250817fffffffffffffffffffffffffffffffffffffffffffffffffffffffffffffffff04831182151516156147925761479161491c565b5b828202905092915050565b60006147a882614845565b91506147b383614845565b9250828210156147c6576147c561491c565b5b828203905092915050565b60006147dc82614825565b9050919050565b60008115159050919050565b60007fffffffffffffffffffffffffffffffff0000000000000000000000000000000082169050919050565b6000819050919050565b600073ffffffffffffffffffffffffffffffffffffffff82169050919050565b6000819050919050565b600060ff82169050919050565b600061486782614880565b9050919050565b600061487982614845565b9050919050565b600061488b82614892565b9050919050565b600061489d82614825565b9050919050565b60006148af82614845565b91507fffffffffffffffffffffffffffffffffffffffffffffffffffffffffffffffff8214156148e2576148e161491c565b5b600182019050919050565b7f4e487b7100000000000000000000000000000000000000000000000000000000600052600160045260246000fd5b7f4e487b7100000000000000000000000000000000000000000000000000000000600052601160045260246000fd5b7f4e487b7100000000000000000000000000000000000000000000000000000000600052601260045260246000fd5b7f4e487b7100000000000000000000000000000000000000000000000000000000600052603260045260246000fd5b600080fd5b6149b7816147d1565b81146149c257600080fd5b50565b6149ce816147e3565b81146149d957600080fd5b50565b6149e5816147ef565b81146149f057600080fd5b50565b6149fc81614845565b8114614a0757600080fd5b50565b614a138161484f565b8114614a1e57600080fd5b5056fea26469706673582212204a864d6a3cc86d6e7b1c57cad11011105977d16c94f888c8b3a45e96abca0c0964736f6c63430008070033608060405234801561001057600080fd5b50610d5f806100206000396000f3fe608060405234801561001057600080fd5b50600436106100a95760003560e01c8063324536eb11610071578063324536eb1461016857806370a082311461018657806395d89b41146101b6578063a0712d68146101d4578063a9059cbb146101f0578063dd62ed3e14610220576100a9565b806306fdde03146100ae578063095ea7b3146100cc57806318160ddd146100fc57806323b872dd1461011a578063313ce5671461014a575b600080fd5b6100b6610250565b6040516100c39190610b30565b60405180910390f35b6100e660048036038101906100e19190610a42565b610289565b6040516100f39190610b15565b60405180910390f35b61010461037b565b6040516101119190610b52565b60405180910390f35b610134600480360381019061012f91906109ef565b610385565b6040516101419190610b15565b60405180910390f35b610152610608565b60405161015f9190610b6d565b60405180910390f35b61017061060d565b60405161017d9190610b52565b60405180910390f35b6101a0600480360381019061019b9190610982565b610613565b6040516101ad9190610b52565b60405180910390f35b6101be61065b565b6040516101cb9190610b30565b60405180910390f35b6101ee60048036038101906101e99190610a82565b610694565b005b61020a60048036038101906102059190610a42565b61076b565b6040516102179190610b15565b60405180910390f35b61023a600480360381019061023591906109af565b6108d1565b6040516102479190610b52565b60405180910390f35b6040518060400160405280600f81526020017f52657075746174696f6e546f6b656e000000000000000000000000000000000081525081565b600081600160003373ffffffffffffffffffffffffffffffffffffffff1673ffffffffffffffffffffffffffffffffffffffff16815260200190815260200160002060008573ffffffffffffffffffffffffffffffffffffffff1673ffffffffffffffffffffffffffffffffffffffff168152602001908152602001600020819055508273ffffffffffffffffffffffffffffffffffffffff163373ffffffffffffffffffffffffffffffffffffffff167f8c5be1e5ebec7d5bd14f71427d1e84f3dd0314c0f7b2291e5b200ac8c7c3b925846040516103699190610b52565b60405180910390a36001905092915050565b6000600254905090565b60008060008573ffffffffffffffffffffffffffffffffffffffff1673ffffffffffffffffffffffffffffffffffffffff168152602001908152602001600020548211156103d257600080fd5b600160008573ffffffffffffffffffffffffffffffffffffffff1673ffffffffffffffffffffffffffffffffffffffff16815260200190815260200160002060003373ffffffffffffffffffffffffffffffffffffffff1673ffffffffffffffffffffffffffffffffffffffff1681526020019081526020016000205482111561045b57600080fd5b816000808673ffffffffffffffffffffffffffffffffffffffff1673ffffffffffffffffffffffffffffffffffffffff16815260200190815260200160002060008282546104a99190610bfa565b9250508190555081600160008673ffffffffffffffffffffffffffffffffffffffff1673ffffffffffffffffffffffffffffffffffffffff16815260200190815260200160002060003373ffffffffffffffffffffffffffffffffffffffff1673ffffffffffffffffffffffffffffffffffffffff168152602001908152602001600020600082825461053c9190610bfa565b92505081905550816000808573ffffffffffffffffffffffffffffffffffffffff1673ffffffffffffffffffffffffffffffffffffffff16815260200190815260200160002060008282546105919190610ba4565b925050819055508273ffffffffffffffffffffffffffffffffffffffff168473ffffffffffffffffffffffffffffffffffffffff167fddf252ad1be2c89b69c2b068fc378daa952ba7f163c4a11628f55a4df523b3ef846040516105f59190610b52565b60405180910390a3600190509392505050565b601281565b60025481565b60008060008373ffffffffffffffffffffffffffffffffffffffff1673ffffffffffffffffffffffffffffffffffffffff168152602001908152602001600020549050919050565b6040518060400160405280600481526020017f524550540000000000000000000000000000000000000000000000000000000081525081565b806000803373ffffffffffffffffffffffffffffffffffffffff1673ffffffffffffffffffffffffffffffffffffffff16815260200190815260200160002060008282546106e29190610ba4565b9250508190555080600260008282546106fb9190610ba4565b925050819055503373ffffffffffffffffffffffffffffffffffffffff16600073ffffffffffffffffffffffffffffffffffffffff167fddf252ad1be2c89b69c2b068fc378daa952ba7f163c4a11628f55a4df523b3ef836040516107609190610b52565b60405180910390a350565b60008060003373ffffffffffffffffffffffffffffffffffffffff1673ffffffffffffffffffffffffffffffffffffffff168152602001908152602001600020548211156107b857600080fd5b816000803373ffffffffffffffffffffffffffffffffffffffff1673ffffffffffffffffffffffffffffffffffffffff16815260200190815260200160002060008282546108069190610bfa565b92505081905550816000808573ffffffffffffffffffffffffffffffffffffffff1673ffffffffffffffffffffffffffffffffffffffff168152602001908152602001600020600082825461085b9190610ba4565b925050819055508273ffffffffffffffffffffffffffffffffffffffff163373ffffffffffffffffffffffffffffffffffffffff167fddf252ad1be2c89b69c2b068fc378daa952ba7f163c4a11628f55a4df523b3ef846040516108bf9190610b52565b60405180910390a36001905092915050565b6000600160008473ffffffffffffffffffffffffffffffffffffffff1673ffffffffffffffffffffffffffffffffffffffff16815260200190815260200160002060008373ffffffffffffffffffffffffffffffffffffffff1673ffffffffffffffffffffffffffffffffffffffff16815260200190815260200160002054905092915050565b60008135905061096781610cfb565b92915050565b60008135905061097c81610d12565b92915050565b60006020828403121561099857610997610ce5565b5b60006109a684828501610958565b91505092915050565b600080604083850312156109c6576109c5610ce5565b5b60006109d485828601610958565b92505060206109e585828601610958565b9150509250929050565b600080600060608486031215610a0857610a07610ce5565b5b6000610a1686828701610958565b9350506020610a2786828701610958565b9250506040610a388682870161096d565b9150509250925092565b60008060408385031215610a5957610a58610ce5565b5b6000610a6785828601610958565b9250506020610a788582860161096d565b9150509250929050565b600060208284031215610a9857610a97610ce5565b5b6000610aa68482850161096d565b91505092915050565b610ab881610c40565b82525050565b6000610ac982610b88565b610ad38185610b93565b9350610ae3818560208601610c83565b610aec81610cea565b840191505092915050565b610b0081610c6c565b82525050565b610b0f81610c76565b82525050565b6000602082019050610b2a6000830184610aaf565b92915050565b60006020820190508181036000830152610b4a8184610abe565b905092915050565b6000602082019050610b676000830184610af7565b92915050565b6000602082019050610b826000830184610b06565b92915050565b600081519050919050565b600082825260208201905092915050565b6000610baf82610c6c565b9150610bba83610c6c565b9250827fffffffffffffffffffffffffffffffffffffffffffffffffffffffffffffffff03821115610bef57610bee610cb6565b5b828201905092915050565b6000610c0582610c6c565b9150610c1083610c6c565b925082821015610c2357610c22610cb6565b5b828203905092915050565b6000610c3982610c4c565b9050919050565b60008115159050919050565b600073ffffffffffffffffffffffffffffffffffffffff82169050919050565b6000819050919050565b600060ff82169050919050565b60005b83811015610ca1578082015181840152602081019050610c86565b83811115610cb0576000848401525b50505050565b7f4e487b7100000000000000000000000000000000000000000000000000000000600052601160045260246000fd5b600080fd5b6000601f19601f8301169050919050565b610d0481610c2e565b8114610d0f57600080fd5b50565b610d1b81610c6c565b8114610d2657600080fd5b5056fea26469706673582212209090359641f8bbf33645681aa744f0aa633ecf3d9ea1ffe93dfa48e78bba924864736f6c63430008070033",
  "linkReferences": {},
  "deployedLinkReferences": {}
}